:100CB100D3EF9400EE940040147D6E7C00ED1D7026
:0D0CC100011CED4C70F7EF1F70E61E80E384
:010CCE002203
:100C1600C2B77F467E00EF1FAC0670011E4C70F611
:100C2600D2B7E4FEFF30B7110FBF00010ED3EF9429
:0B0C360088EE941340EF7F00227F0146
:010C41002290
:0C0B1F00120C167F017E00120CB17FCC7E
:100B2B00E4FBFAC2B70535E53570020534EF1392D5
:100B3B00B7753400753506E5351535AC34700215CF
:100B4B00344C70F3D2B7EFC313FF0BBB00010AEBAE
:050B5B0064084A70CEA1
:010B60002272
:100B61007D087C00C2B70FBF0000D2B70FBF0000E5
:100B71000FBF0000A2B7E433C43333335480FBE921
:100B8100C3134BF97E007F04EF1FAA0670011E4AB2
:0D0B910070F6ED1D70011CED4C70C9AF0138
:010B9E002234
:08000300120B1F7F44020B2BBE
:080D6E00120B1F7FBE020B2BCC
:100D0300E4FFFE120003120D6E120B618F33120B00
:060D130061EFFEE533FF75
:010D190022B7
:100813007590F0E59064F070030208C17F28120D13
:1008230030E59064F070030208C17590FEE59064B2
:10083300FE601CE59054F0F533240EF533E590B4D7
:10084300FEFB7F28120D30E590B4FEFBAF3322751B
:1008530090FDE59064FD601CE59054F0F533240DA4
:10086300F533E590B4FDFB7F28120D30E590B4FD20
:10087300FBAF33227590FBE59064FB601CE590545D
:10088300F0F533240BF533E590B4FBFB7F28120D11
:1008930030E590B4FBFBAF33227590F7E59064F736
:1008A300601CE59054F0F5332407F533E590B4F775
:1008B300FB7F28120D30E590B4F7FBAF33227FFFA7
:0108C3002212
:10096300120813EF12043009D97709C67B09B27D47
:10097300099E7E09DEB709CBBB09B7BD09A3BE0932
:10098300E3D709D0DB09BCDD09A8DE09E8E709D50F
:10099300EB09C1ED09ADEE000009ED7E007F0C22ED
:1009A3007E007F0D227E007F0E227E007F0F227E3F
:1009B300007F09227E007F06227E007F03227E00C5
:1009C3007F0B227E007F08227E007F05227E007F30
:1009D3000222E4FEFF227E007F07227E007F0422A4
:0F09E3007E007F01227E007F0A227EFF7FFF229F
:0F0D30007E32AD07EDD3940040031D80F7DEF354
:010D3F002291
:100C4200C2A58F807F017E00120C53D2A77F057E42
:010C520000A1
:100C5300D3EF9400EE9400400F7DC77C01DCFEDDF2
:080C6300FAEF1F70EB1E80E8A0
:010C6B002266
:0A0D5A00C2A7C2A6120C42C2A722D3
:0A0D6400C2A7D2A6120C42C2A722B9
:100CEA007F38120D5A7F0C120D5A7F06120D5A7F49
:090CFA0001120D5A7F80020D5A0F
:100BDB0054454D502053455454494E4700543A0008
:100BEB0054542E545443005B002C005D00202020F5
:100BFB0020202000486967687421004E6F726D6178
:0B0C0B006C004C6F772100000000001F
:100C6C000B103031323334353637383900101F2001
:100C7C007365743A5B2B30302C2B30305D430003A2
:040C8C000D2B2D00FF
:100AD300120CCF120CEA120D407BFF7A0B79DB7DEF
:100AE300017F02120BA57B007A00791F7D02E4FFD0
:100AF300120BA57590F0E50CB40110120D4DE4F541
:100B03000C1209638E088F091204AB120D4DE51CFC
:0C0B1300451B60DF120D0312070980D79C
:100CCF00E4F51BF51CF50A750B06F50CF5317532BD
:0B0CDF001BF52F753014F51EF51D22CB
:040709008E338F3468
:10070D0078357C007D007BFF7A0C79127E007F04AA
:10071D0012039BC3E533648094805019AB0E7D01A9
:10072D007F05120C97E5341534700215336334FFD1
:10073D006333FF8009AB0D7D017F05120C97AC3340
:10074D00AD34EC1202118F3C8E3B8D3A8C39E4FFA7
:10075D00FE7DC87C40AB3CAA3BA93AA839120106E4
:10076D00E4FBFAF9783F12001512024A8E338F34EA
:10077D00AE33AF347C277D101203EC7E037FE8CFC0
:10078D00CDCFCECCCE1203EC8F35AE33AF347C0350
:10079D007DE81203EC7E007F64CFCDCFCECCCE12A0
:1007AD0003EC8F36AE33AF347C007D641203EC7EE8
:1007BD00007F0ACFCDCFCECCCE1203EC8F37AE3328
:1007CD00AF347C007D0A1203EC8D38AF357E00AD61
:1007DD00367C001208C4E5352430FB7D017F0612FE
:1007ED000C97E5362430FB7D017F07120C97E5371A
:1007FD002430FB7D017F09120C97E5382430FB7DF9
:06080D00017F0A020C97B6
:060C9100ED2430FB7D02A2
:020C97008B3D93
:100C9900EFBD01062480F53E800424C0F53EAF3E39
:080CA900120D5AAF3D020D646B
:060B9F007BFF7D027F0ACE
:060BA5008B3F8A408941EC
:100BAB00EFBD01062480F542800424C0F542AF421C
:100BBB00120D5AAB3FAA40A9411203C1FF6010129C
:0F0BCB000D6474012541F541E43540F54080E4A7
:010BDA0022F8
:0D0D4000D2AFD2A9D28C758CFC758A182216
:03000B00020D1AC9
:100D1A00C0E0E59054F064F06003750C01758CFC3A
:060D2A00758A18D0E032CA
:1004AB008E338F34E534F47003E533F470030207B5
:1004BB0008D3E5349409E533940050030206BAE5FA
:1004CB00336003020708E53424F5603A14605514D1
:1004DB00700302059B147003020657147003020687
:1004EB008824056003020708AB107D027F07120CFE
:1004FB0097AB107D027F08120C97750A00750B06DF
:10050B00E4F52FF53022AB107D027F0B120C97AB6D
:10051B00107D027F0C120C97750A00750B0AE4F51F
:10052B0031F53222E4F51BF51C7F01120D5A7F8049
:10053B00120D5A120D4D7BFF7A0B79DB7D017F0279
:10054B00120BA5AE2FAF307C007D0A1203ECEF240B
:10055B0030F526AE2FAF307C007D0A1203ECED2474
:10056B0030F527AE31AF327C007D0A1203ECEF245D
:10057B0030F52AAE31AF327C007D0A1203ECED244C
:10058B0030F52B7B007A00791F7D02E4FF020BA56F
:10059B00751B00751C017F01120D5A7F80120D5ABD
:1005AB007BFF7A0B79E87D017F03120BA57BFF7A2A
:1005BB000B79EB7D017F06120BA57BFF7A0B79F292
:1005CB007D02E4FF120BA5740D251DF8E6FB7D02E1
:1005DB007F01120C97AE2FAF307C007D0A1203EC1B
:1005EB00EF2430FB7D027F02120C97AE2FAF307CD5
:1005FB00007D0A1203EC7F03120C917BFF7A0B79BF
:10060B00F47D027F04120BA5740D251EF8E6FB7D0D
:10061B00027F05120C97AE31AF327C007D0A1203BC
:10062B00ECEF2430FB7D027F06120C97AE31AF321C
:10063B007C007D0A1203EC7F07120C917BFF7A0B77
:10064B0079F67D027F08120BA5020D4DE50B6406B2
:10065B00450A700FF51D740D251DF8E6FB7D027F15
:10066B0006800EE4F51E740D251EF8E6FB7D027F59
:10067B000A120C97050BE50B7034050A22E50B6487
:10068B0006450A7010751D01740D251DF8E6FB7DDE
:10069B00027F06800E751E01740D251EF8E6FB7D8C
:1006AB00027F0A120C97050BE50B7002050A22E577
:1006BB000B6407450A6008E50B640B450A7013AF22
:1006CB000BE534120C92120A7E050BE50B702E050E
:1006DB000A22E50B6408450A7011AF0BE534120CC6
:1006EB0092120A7E750A00750B0A22E50B640C4503
:0E06FB000A700AAF0BE534120C92120A7E222E
:080A7E00AD34AC33AF0BAE0A3E
:100A8600AB05AA04EE7045EF24F8601B24FD602236
:100A960014602F240570357C007D0AAF03AE021268
:100AA60003DA8E2F8F3022EB2530F530EA352FF51D
:100AB6002F227C007D0AAF03AE021203DA8E318F3D
:0D0AC6003222EB2532F532EA3531F53122CE
:0408C400AB05AA04D2
:1008C800E4F53DF53EFC7D0A1203DAE53E2FCFE55F
:1008D8003D3ECF2BF53EEF3AF53DE53E6455453DAF
:1008E8007004F53DF53E7A0B79F8120B9FD3E53E7F
:1008F8009532E5316480F8E53D648098400B7A0BC9
:1009080079FF120B9FC2A3D2A4D3E53E9532E531FD
:100918006480F8E53D648098501EC3E53E9530E557
:100928002F6480F8E53D648098400D7BFF7A0C7950
:1009380006120BA1D2A3D2A4C3E53E9530E52F64DD
:1009480080F8E53D64809850117BFF7A0C790D7D25
:0A095800027F0C120BA5D2A3C2A46B
:010962002272
:0C0D4D007F017E267D82DDFEDEFADFF6EF
:010D59002277
:10000E000202B6E86480F8E933E83360110460F068
:10001E00ED33EC337009E8FCE9FDEAFEEBFF220458
:10002E0060DED3EB9FEA9EE99DE8C2E78CF0C2F753
:10003E0095F0400CE8CCF8E9CDF9EACEFAEBCFFB1F
:10004E0012028185D0F05804700320D5B3E80470F5
:10005E00075002B2D50202C092D5EC0460F7E4CC90
:10006E00C0E0C398F8603B94186008400DD0E0FBE8
:10007E00020298E4FBFAC9FC8028E830E406E4C9E1
:10008E00FBE4CAFCE830E305E4C9CACBFCE854073C
:10009E006010F8C3E913F9EA13FAEB13FBEC13FC47
:1000AE00D8F130F52FC3E49CFCEF9BFFEE9AFEEDEA
:1000BE0099FDD0E0FBEF4E4D4C701222DB03020295
:1000CE00BDEC2CFCEF33FFEE33FEED33FDED30E7F0
:1000DE00EB020298EF2BFFEE3AFEED39FDD0E0FB7E
:1000EE0050130BBB00030202C0ED13FDEE13FEEF27
:0800FE0013FFEC13FC02029851
:10010600EC4D6011E8497017ED33EC3304600DE4F3
:10011600FCFFFEFD22E933E8330470F80202B61252
:10012600028158046009E4CC248150062850090253
:1001360002C02840030202BDC0E0EB4A7044B98009
:1001460006D0E0FB0202ACEF4E701CBD8008EBFF50
:10015600EAFEE9FD80EBE98DF0A4FEE5F00201EF91
:10016600E9CDF9EAFEEBFFEF89F0A4FCE5F0CE89D4
:10017600F0A42EFFE435F0CD89F0A42DFEE435F091
:100186008067EF4E7005BD80D780C3EF8BF0A4ACBF
:10019600F0EE8BF0A42CFCE435F0F8EF8AF0A42CFA
:1001A600E5F038FCE433CB8DF0A42CFCE5F03BF80D
:1001B600EE8AF0A42CFCE5F038F8E433CF89F0A4FD
:1001C6002CFCE5F038CF3400CE89F0A42FFFE5F003
:1001D6003EFEE433C98DF0A42EFEE5F039CD8AF05B
:1001E600A42FFFE5F03EFEE43DFD33D0E0FB5007D3
:1001F6000BBB000F0202C0EC2CFCEF33FFEE33FE0C
:06020600ED33FD02029839
:10020C0075F020800E75F010800575F0087D007E6D
:10021C00007F003392D530D503120422EC3340100A
:10022C00EF33FFEE33FEED33FDEC33FCD5F0ED2276
:0E023C00E5F0247EA2D513CC92E7CDCEFF22B2
:10024A00EDD2E7CD33EC3392D524814006E4FFFEAC
:10025A00FDFC22FCE4CFCECDCC24E0501174FF800B
:10026A00EDC3CC13CCCD13CDCE13CECF13CF0470A8
:07027A00F030D5DE02042282
:10028100E9D2E7C933E833F892D5EDD2E7CD33ECC3
:0702910033FC5002B2D5223C
:10029800EC30E7100FBF000C0EBE00080DBD0004C7
:1002A8000BEB6014A2D5EB13FCED92E7FD2274FF73
:1002B800FCFDFEFF22E480F8A2D574FF13FC7D80CC
:0302C800E480EFE0
:030000000209F200
:0C09F200787FE4F6D8FD758142020A39D6
:1002CB00E709F608DFFA8046E709F208DFFA803E15
:1002DB0088828C83E709F0A3DFFA8032E309F60802
:1002EB00DFFA8078E309F208DFFA807088828C836A
:1002FB00E309F0A3DFFA806489828A83E0A3F6081E
:10030B00DFFA805889828A83E0A3F208DFFA804CF7
:10031B0080D280FA80C680D4806980F280338010CE
:10032B0080A680EA809A80A880DA80E280CA803337
:10033B0089828A83ECFAE493A3C8C582C8CCC583AF
:10034B00CCF0A3C8C582C8CCC583CCDFE9DEE7807F
:10035B000D89828A83E493A3F608DFF9ECFAA9F0FE
:10036B00EDFB2289828A83ECFAE0A3C8C582C8CC54
:10037B00C583CCF0A3C8C582C8CCC583CCDFEADE6D
:10038B00E880DB89828A83E493A3F208DFF980CCCF
:10039B0088F0EF60010E4E60C388F0ED2402B404C8
:1003AB000050B9F582EB2402B4040050AF2323456F
:0603BB00822390031B7376
:1003C100BB010689828A83E0225002E722BBFE023A
:0903D100E32289828A83E493226D
:1003DA00EF8DF0A4A8F0CF8CF0A428CE8DF0A42E37
:0203EA00FE22F1
:1003EC00C2D5EC30E709B2D5E4C39DFDE49CFCEE2C
:1003FC0030E715B2D5E4C39FFFE49EFE120456C34A
:10040C00E49DFDE49CFC800312045630D507C3E444
:06041C009FFFE49EFE229A
:0E042200C3E49FFFE49EFEE49DFDE49CFC22EB
:10043000D083D082F8E4937012740193700DA3A35B
:1004400093F8740193F5828883E47374029368606F
:06045000EFA3A3A380DF6F
:1009FE00020AD3E493A3F8E493A34003F68001F232
:100A0E0008DFF48029E493A3F85407240CC8C333F9
:100A1E00C4540F4420C8834004F456800146F6DFC8
:100A2E00E4800B0102040810204080900C6CE47EE0
:100A3E00019360BCA3FF543F30E509541FFEE493BD
:100A4E00A360010ECF54C025E060A840B8E493A384
:100A5E00FAE493A3F8E493A3C8C582C8CAC583CAAF
:100A6E00F0A3C8C582C8CAC583CADFE9DEE780BE67
:010C90000063
:10045600BC000BBE0029EF8DF084FFADF022E4CC8A
:10046600F875F008EF2FFFEE33FEEC33FCEE9DEC53
:10047600984005FCEE9DFE0FD5F0E9E4CEFD22ED99
:10048600F8F5F0EE8420D21CFEADF075F008EF2FE3
:10049600FFED33FD4007985006D5F0F222C398FDD4
:0504A6000FD5F0EA2271
:00000001FF
